:100000000C9480010C949D010C949D010C949D0115
:100010000C949D010C949D010C949D010C949D01E8
:100020000C949D010C949D010C94391B0C940C1C98
:100030000C945C160C949D010C949D010C949D01F4
:100040000C949D010C949D010C949D010C949D01B8
:100050000C949D010C94F4160C949D010C949D013C
:100060000C949D010C949D010C949D010C949D0198
:100070000C949D010C949D010C949D010C949D0188
:100080000C949D010C949D010C949D010C949D0178
:100090000C949D010C949D010C949D010C949D0168
:1000A0000C949D010C949D010C949D0129001E004F
:1000B0001F0020002100220023002400250026002C
:1000C00027002A002B0014001A0008001500170052
:1000D0001C0018000C00120013004C00310004003A
:1000E0001600070009000A000B000D000E000F00AB
:1000F00033003400E1001D001B000600190005005C
:10010000110010003600370038002800E0004600DB
:10011000E3002152E2002C002C002F0030002D00C3
:100120002E0035003A003B003C003D003E003F0001
:10013000400041004200430044004500010001002E
:100140005200010001000100010001000100010056
:10015000010001003900500051004F000100010072
:100160000100010001000100010001000100010087
:100170000100010001000100010001000100010077
:100180000100010001000100010001000100010067
:1001900001000100010001000100010026037000C0
:1001A000720065006F006E00690063002F006D0033
:1001B0006F006E006F006C006900740068006600DC
:1001C000740000002A034F006C0065006B00730090
:1001D00061006E00640072002000420069006C0043
:1001E0006F006B006F006E006E0069007900000008
:1001F0000403090409023B00020100A0FA090400FB
:10020000000103010100092111010001224400073E
:100210000581030800010904010001030000000931
:100220002111010001227B00070582032000011239
:1002300001000200000008EDFE6060000101020004
:100240000105010902A10185020901A100050919A1
:10025000012908150025019508750181020501098C
:100260003009311581257F950275088106093815F9
:1002700081257F950175088106050C0A38021581D4
:10028000257F950175088106C0C005010980A1017F
:10029000850319012AB700150126B70095017510CD
:1002A0008100C0050C0901A101850419012AA002E1
:1002B000150126A002950175108100C005010906EF
:1002C000A101050719E029E7150025019508750129
:1002D00081029501750881010507190029FF1500A4
:1002E00026FF0095067508810005081901290515E6
:1002F000002501950575019102950175039101C0D5
:1003000011241FBECFEFDAE0DEBFCDBF11E0A0E0C9
:10031000B1E0E0EBFDE302C005900D92A239B10718
:10032000D9F722E0A2E9B1E001C01D92A637B207D9
:10033000E1F70E9496100C94841E0C940000823009
:10034000B8F46530A8F44C3098F4E42FF0E09CE069
:10035000699FE00DF11D11249CE3899FE00DF11DC3
:100360001124EE0FFF1FE455FF4F859194910895DE
:1003700081E090E008950E949F01089581E0089532
:100380000E94BE01089581E008950E94BE01089573
:100390000E94C501089508950E94CB010895A6E02A
:1003A000B0E0E5EDF1E00C94E01D49835A839E83B3
:1003B0003091990189819A8131111AC03E8133238C
:1003C00099F0222389F00E946C07182F682F8981E9
:1003D0009A810E94480769817A81812F0E943D0E8F
:1003E0002696E3E00C94FC1D0E945A07182FF3CFC9
:1003F0000E946C0769817A81F1CFFC01262F408130
:10040000518162817381848195810E94CF01089519
:10041000CF93DF93D82FC92F61E00E94FD016D2F8C
:100420007C2F0E94C001DF91CF910895CF93DF937D
:10043000D82FC92F60E00E94FD016D2F7C2F0E94F4
:10044000CC01DF91CF91089581E008950E942402AC
:100450000895CF93C82F0E941A068C2F0E9426025F
:100460002FEF84E39CE0215080409040E1F700C0F2
:100470000000CF91089581E00E9429020E94181780
:10048000089580E00E9429020E94291708950F9381
:100490001F93CF93DF938C0161E00E94FD01EC017B
:1004A000B8010E94C8018823B1F1B801CE010E94B1
:1004B000C814882381F1B801CE010E94FC10882362
:1004C00051F1B801CE010E94D110882321F1F80129
:1004D0008581882381F0CA35FCE7DF0739F178F49C
:1004E000C130ECE7DE07F9F0C330FCE7DF07C9F005
:1004F000C115DC4771F0C8010E94C3010DC0CB35A6
:10050000ECE7DE07B1F0CC35DC47A9F70E946E0BB3
:10051000F2CF0E943B0280E0DF91CF911F910F91BB
:1005200008950E94800B0E944102F5CF0E94780B33
:10053000E2CF0E947C0BDFCF0E9438160E94BC02E3
:1005400008950E94C0020E943D16089581E008951A
:100550000895CF93DF93D82F0E94A602C82F882337
:1005600019F08D2F0E94A8028C2FDF91CF91089552
:1005700008950E94A902089580E00E94B90208959A
:100580000E940E150E94B9020895CF930E940E1585
:10059000C82F809194018C1779F0C09394010E9428
:1005A000C81660939501709396018093970190937C
:1005B00098018C2F0E94B902CF910895ADE0B0E070
:1005C000E4EEF2E00C94E11D488759876A877B8747
:1005D0008C879D8791110E94AB0A1F8286E0FE01E5
:1005E0003896DE01119601900D928A95E1F78D8182
:1005F00081110DC029813A814B815C816D817E81A1
:100600008F810E94F1092D96E2E00C94FD1DCE0130
:1006100001960E9408028111EDCFF5CFFC01848183
:10062000813021F4808191810E949E070895662384
:1006300029F00E946A120E942B1308950E94B3129F
:10064000FACFCF93C82F882399F08CEF8C0F813A83
:1006500088F48C2F0E949515882329F08C2F0E94F6
:10066000DA150E941C0B8C2F0E94D2150E941C0BC5
:10067000CF91089580E28C0F883048F4C77081E0F4
:1006800001C0880FCA95EAF70E948C0AEFCF8BE56C
:100690008C0F833038F42C2F2452330BC9010E9465
:1006A0003515E6CFE8E5EC0FEB3150F4F0E0EE0F56
:1006B000FF1FEB5EFE4F808191810E945B15D8CFBA
:1006C00083E38C0F8331A0F661E08C2F0E94170327
:1006D000CFCF882381F19CEF980F913A28F40E94A4
:1006E000DA150E941C0B089590E2980F983050F490
:1006F000877091E001C0990F8A95EAF7892F0E94CF
:10070000920AEFCF9BE5980F933028F480E090E0B9
:100710000E943515089598E5980F9B3128F480E0E4
:1007200090E00E945B15089593E3980F933118F4BD
:1007300060E00E94170308951F93CF93DF93182F53
:10074000EB010E942103209739F4812F0E94690355
:10075000DF91CF911F9108958FE99FE00197F1F705
:1007600000C000002197EFCF60E070E0893311F402
:1007700060E570E00E949C030895882321F00E94A8
:100780008C0A0E941C0B0895882321F00E94920A73
:100790000E941C0B0895A0E0B0E0E1EDF3E00C94A2
:1007A000DB1D6C01D62FC72FFC0115810681029538
:1007B0000F700E94810AE82E8823F9F0E12E1123A0
:1007C000E1F08C2F807F803461F080E28D0F8830E3
:1007D000F0F08C2F807E803221F4D230C0F00023E4
:1007E000B1F08091500282FF12C082E00E94410B62
:1007F0000E94810A91E0E82EE926EC2FE295EF7045
:10080000C03CB0F5F0E0EA57F14E0C94CB1DE12C62
:10081000F4CF0C2F0F70C03110F00295007F112320
:1008200099F0002359F080E28D0F883010F0D1113B
:1008300007C0802F0E948C0A0E941C0B8D2F51C074
:10084000802F0E949D0AF8CF8D2F0E9469030023FC
:1008500079F080E28D0F883010F0D11104C0802F24
:100860000E94920A03C0802F0E94A30A0E941C0BC0
:10087000EE2089F00E947D0A80FD0DC0F6011582F0
:100880000E94770A0E94A506C6010E94E1050E9407
:10089000770A0E94B506CDB7DEB7E8E00C94F71DE5
:1008A000FC2FFF70FF2EC07FC03219F0F29480EF52
:1008B000F822DD2341F0D130D1F1112309F444C0F5
:1008C0000023F1F0BBCF8091500282FD15C01123AF
:1008D00059F0FF2029F08F2D0E948C0A0E941C0BDA
:1008E00080E00E942103C4CF80E00E946903FF20C2
:1008F00009F4BECF8F2DB4CF112369F0011104C0CC
:100900008F2D0E94BD03B4CF013009F0B1CF8F2DE0
:100910000E94C30AADCF0111ABCF8F2D0E94C4033B
:100920008F2D0E94CF0A8F2D0E94B20AA1CF1123D2
:1009300021F0063008F09CCFE3CF053008F098CFC7
:100940008F2D0E94C40394CF0023D1F3D93349F4EF
:100950002FEF87EE93E0215080409040E1F700C0F8
:1009600000008D2F0E94690383CF8C2F869586957A
:100970008370882369F0813009F07ACF8D2F9C2F06
:100980009370111102C080E090E00E945B1570CF5F
:100990008D2F9C2F9370111102C080E090E00E9477
:1009A000351566CF612F8D2F0E94170361CF8C2FD5
:1009B0008370811139C0111129C04D2F4295469580
:1009C0004770440F440F2D2F2F7030E0042E02C0CB
:1009D000220F331F0A94E2F780E090E0D4FF09C0B1
:1009E0008FE090E002C0880F991F4A95E2F780954A
:1009F0009095C695C695C370822B932BC23071F02B
:100A0000C33079F0C13039F00E9475060E940E158E
:100A10000E94B9022DCF0E946C06F8CF0E947E067C
:100A2000F5CF0E946906F2CF112361F1C0FFEECF2E
:100A30004D2F429546954770440F440F2D2F2F7030
:100A400030E0042E02C0220F331F0A94E2F780E048
:100A500090E0D4FF09C08FE090E002C0880F991F9A
:100A60004A95E2F780959095C695C695C370822BFE
:100A7000932BC23069F0C33071F0C13031F00E9465
:100A8000E006C4CF823010F2D3CF0E94D706BECF8B
:100A90000E94E906BBCF0E948D06B8CFCF7011230C
:100AA00039F08C2F0E94A5068D2F0E94BD03AECF7A
:100AB0008D2F0E94C4038C2F0E94B506A7CFD23F72
:100AC00031F170F4D03FB9F0D13FB1F1112309F405
:100AD0004EC0002309F448C08D2F0E94210396CFF9
:100AE000D33FE1F0D43F21F11111F3CF01114DC0FB
:100AF0008C2F8F71E1CF112341F0053008F086CFA4
:100B00008C2F8F710E94C70681CF0530F7CF8C2FB5
:100B10008F711111D1CF0E94A50678CF112329F032
:100B20008C2F8F710E94990671CF0E9494066ECF10
:100B30008091500282FD06C08C2F8F71112309F421
:100B4000BBCFE9CF112331F063E08C2F8F710E946E
:100B5000230B5CCF81E00E94410B023008F456CF9A
:100B600082E00E94410B52CF8C2F8F71D4CF002393
:100B700009F4BECFD93349F4EFEFF7EE23E0E150AB
:100B8000F0402040E1F700C000008D2F0E94690373
:100B90003DCF0F931F93CF93DF93EC016881798151
:100BA0008D810E94AB078C010E94F2060E946806AC
:100BB000B801CE010E94CB03DF91CF911F910F911D
:100BC0000895CF93DF93EC018C81882399F0CE01B7
:100BD0000E944702811111C00E94810A882351F0AE
:100BE0008D81882339F08091500282FF03C082E01A
:100BF0000E94410BDF91CF910895CE010E94C9055B
:100C0000CE010E941602F6CF80E090E00E943515DA
:100C100080E090E00E945B150E94AB0A0E941C0BD2
:100C20000E9448130E942B1308950E94E2150E940F
:100C3000040608950E949A0A0E9415060895282F16
:100C400092959F70963091F060F4925F9F70923011
:100C500030F481E0203F79F030F4283E30F080E03D
:100C600008959A5FF3CF243FD1F7089581E0283E9D
:100C7000E0F3213FF9CF0895FC018481882339F006
:100C8000808191810E949E070E941F06089580E046
:100C90000895A6E0B0E0EFE4F6E00C94E11D26969E
:100CA000E2E00C94FD1DA7E0B0E0E9E5F6E00C946D
:100CB000E11D2796E2E00C94FD1D08950E945D065B
:100CC00008950E945E069093BD018093BC01089533
:100CD00008950E94610608952091BC013091BD01E4
:100CE000822B932B0E94610608952091BC013091C4
:100CF000BD01822393230E94610608952091BC01C7
:100D00003091BD01822793270E94610608950E94B9
:100D10005D0608950E94870608950E948A069093B2
:100D2000BB018093BA01089580E090E00E948D0697
:100D3000089521E030E0A90102C0440F551F8A95B3
:100D4000E2F7CA010E948D06089521E030E002C05A
:100D5000220F331F8A95E2F78091BA019091BB016F
:100D6000822B932B0E948D06089521E030E002C073
:100D7000220F331F8A95E2F7209530958091BA01B2
:100D80009091BB01822393230E948D06089521E058
:100D900030E002C0220F331F8A95E2F78091BA013A
:100DA0009091BB01822793270E948D060895209180
:100DB000BA013091BB01822B932B0E948D060895BE
:100DC0002091BA013091BB01822393230E948D06AA
:100DD00008952091BA013091BB01822793270E9488
:100DE0008D06089508959B01677091E001C0990FE9
:100DF0006A95EAF763E0369527956A95E1F7220F41
:100E0000331F220F331FFA01E20FF31F40E050E0BF
:100E1000682F70E08191DF0111979B01042E02C0C1
:100E2000369527950A94E2F72170219528272923E2
:100E300028272C934F5F5F4F4430510559F7089591
:100E40009C01982F977083E0369527958A95E1F756
:100E5000220F331F220F331FFB01E20FF31F40E06D
:100E600050E080E0219130E0092E02C036952795B0
:100E70000A94E2F721703327042E01C0220F0A944E
:100E8000EAF7822B4F5F5F4F4430510559F70895C1
:100E9000282F862F953068F42C3058F4622F70E09C
:100EA0002CE0929F600D711D11244AE951E00E94CF
:100EB000F3060895292F953068F48C3058F490E0AB
:100EC0006AE971E03CE0239F800D911D11240E948E
:100ED0002007089580E00895A0E0B0E0E2E7F7E0A1
:100EE0000C94DA1D8C01E090BA01F090BB01809166
:100EF000BC019091BD01E82AF92ACFE0D0E0CC24D2
:100F0000C394D12CC6010C2E02C0880F991F0A94DD
:100F1000E2F78E219F21892B49F4219798F7B12C74
:100F20008B2DCDB7DEB7E9E00C94F61DBC2EB801D1
:100F30008C2F0E94490E019781F3F2CFCF93DF935C
:100F4000D82FC92F0E946C076D2F7C2F0E94490E4D
:100F5000DF91CF9108951F93CF93DF93162FD72F53
:100F600090919901992341F0862F972F0E949E0717
:100F7000DF91CF911F910895882381F0862F972FBD
:100F80000E946C07C82F682F812F9D2F0E94480751
:100F9000612F7D2F8C2F0E94490EEACF862F972F2D
:100FA0000E945A07C82FF4CF0F931F93CF93E0915D
:100FB000BE01C7E08091BF018E1304C0CF911F9185
:100FC0000F9108950E2F10E0CE9FF0011124E054F0
:100FD000FE4F2081318142815381648175818681F8
:100FE0000E945306F8013196E770E4CF2091F80192
:100FF0003091F9014091FA015091FB016091FC019F
:101000007091FD018091FE010E9453060895809128
:10101000FE01803178F48091FD01882359F0E09140
:10102000BE012091BF013091F9014091F80157E0D4
:101030002E1301C008956E2F70E05E9FF001112401
:10104000DF01A054BE4F14968C911497882361F150
:1010500011968C911197831327C08C91841324C00F
:1010600015968C91159781111FC012968D919C91A8
:10107000A091FA01B091FB018A1B9B0B883C910562
:1010800098F48091FE018F7080618093FE01EA5395
:10109000FE4F80818F708061808388EF91E00E9495
:1010A000E1050E94D4070895FB013196E770C0CF97
:1010B000E091BE019091BF0127E0E91302C080E0FA
:1010C0000895AE2FB0E02E9FF0011124E054FE4FA2
:1010D0003181361306C03081381303C03581341393
:1010E00004C0FD013196E770E8CF81E008958F924A
:1010F0009F92AF92BF92DF92EF92FF920F931F9356
:10110000CF93DF93CDB7DEB72D970FB6F894DEBF40
:101110000FBECDBF8C0186E0F801DE01189601906C
:101120000D928A95E1F7F801E080F580A280B38006
:10113000848198EF892E91E0992E9091FC01911174
:101140001BC0882309F4FCC0FF2009F43DC1C8017D
:101150000E943C06882309F437C187E0F801D401D6
:1011600001900D928A95E1F7C4010E940E030E943E
:1011700007080E94F607E4C0D090FD012091FA0113
:101180003091FB01A501421B530BDD2009F4DBC0AC
:10119000483C510508F0A6C0882309F4D1C09091BD
:1011A000F90191808091FE01803108F06BC09912A5
:1011B00028C09091F8019E1124C0F1105DC08F707D
:1011C00080618093FE010E94F60788EF91E00E9403
:1011D000E1058091FE01F8018683F12C8F2D2D967B
:1011E0000FB6F894DEBF0FBECDBFDF91CF911F9138
:1011F0000F91FF90EF90DF90BF90AF909F908F90F6
:101200000895F11039C040E0692D8E2D0E945808D4
:1012100040E0692D8E2D0E945808F82E8111DDCFF7
:10122000888599850E949E07292F22952F709034DA
:1012300050F49F70223080F0992399F0F801968144
:10124000903178F4CBCF2A5F2F70223078F0C8012C
:101250000E94E105FD2CC2CF992319F0882309F4DF
:10126000BDCF805E883008F4B9CFF1CF803F08F45D
:10127000B5CF815F8230F7CF8091FE01816080938E
:10128000FE01ABCF991207C09091F8019E1103C0E7
:10129000FF2009F479C0C8010E943C06882309F4A4
:1012A00093C0FF2009F490C08091FE01803288F045
:1012B0002091F8013091F9013A832983BC82AB82F5
:1012C0009091FC019D831E828F83CE0101960E9426
:1012D000E10587E0F801A8EFB1E001900D928A9551
:1012E000E1F745CF9091FE019031A0F448855985F2
:1012F0006A857B858C859D850E94490688EF91E0F3
:101300000E94E10587E0F40111928A95E9F70E94B5
:10131000F60763CF8823A1F02091F901818128137A
:10132000BACF8091F8018E11B6CFF110B4CF968369
:10133000C8010E94E10587E0F40111928A95E9F75E
:10134000FF24F3944BCF483C510508F041C088235B
:10135000B9F3FF20C9F19091F901818198132AC056
:101360008091F8018E1126C08091FE0180FD19C088
:101370008031B8F08683807F803F39F08681982F56
:10138000907F905F8F70892B8683C8010E94E10552
:1013900087E0F801A8EFB1E001900D928A95E1F79E
:1013A000E8CE87E0F801A8EFB1E001900D928A95B0
:1013B000E1F7C6CFC8010E943C0681118ACF809117
:1013C000FE0181608093FE01C8010E94E105B8CF53
:1013D000488559856A857B858C859D850E9449064F
:1013E00091CFAEE0B0E0E7EFF9E00C94E01D288784
:1013F00039874A875B876C877D878E87CE01089601
:101400000E9477088823B1F06C85662341F0288517
:1014100039854A855B857D858E850E94530617E058
:101420008091BE019091BF0189133EC02E96E3E0EA
:101430000C94FC1D87E0FE013896DE0111960190A8
:101440000D928A95E1F72091BF014091BE018C85F4
:10145000882329F330E0C90101968770992750E06D
:101460008417950799F097E0929FD001939FB00D54
:101470001124A054BE4FFE01319601900D929A9511
:10148000E1F78093BF010E94D407C9CF0E941A06DA
:101490001092BF011092BE0187E0E8EFF1E0DF019A
:1014A0001D928A95E9F7BBCF189FC0011124805483
:1014B0009E4F0E947708882309F4B8CFE091BE01BF
:1014C0001E9FF0011124E054FE4F208131814281A2
:1014D00053816481758186810E9453068091BE018B
:1014E00090E00196877099278093BE0199CF8091F3
:1014F00007028695869586950895809107028770E4
:10150000089590910702977081E0911101C080E0E9
:10151000089580911302089590911302982B90934F
:1015200013020895982F9095809113028923809338
:101530001302089510921302089590911202982BAD
:10154000909312020895982F90958091120289230A
:1015500080931202089510921202089508950E9435
:10156000AE0A089590910802292F2823222331F0F2
:1015700080958923809308020E94AF0A08950895F8
:101580000E94BF0A089590910902292F2823281745
:1015900029F0982B909309020E94C00A0895909117
:1015A0000902292F2823222331F080958923809353
:1015B00009020E94C00A089580910902882329F037
:1015C0001092090280E00E94C00A08950F931F93B1
:1015D000CF93DF930091000110910101C09113029C
:1015E00080911202C82BD0910902DD2331F00E94B4
:1015F000811581110E94DC0ACD2BF801C083C091B6
:101600000001D091010148E050E06FEF71E0CE01A0
:101610000E941C1E892B59F088E0FE01AFEFB1E05B
:1016200001900D928A95E1F7CE010E941B15DF9182
:10163000CF911F910F9108950E94E60A0895089591
:101640000E941F0B08959091500292FF11C098E0E4
:10165000899F90011124622B609307020E94A506C6
:10166000809107028695869586950E94200B0895A5
:101670000E94A50608951092070280E00E94200BA8
:101680000895909107028095892380930702282F5F
:10169000277021110DC0891759F09091500292FFC7
:1016A00007C08695869586950E94B5060E943B0BDD
:1016B00008959091500292FB222720F9281769F093
:1016C00080FB92F99093500280914F0290915002CA
:1016D0000E94A10B82E00E94410B0895809150026C
:1016E00082FB882780F991E089270E94590B089591
:1016F00081E00E94590B089580E00E94590B0895E3
:101700006FEF7FEF80E090E00E946E1E089580E012
:1017100090E00E943A1E9C0181E0253E3E4F09F078
:1017200080E0089582E090E00E94321E089583E0F8
:1017300090E00E94321E089584E090E00E943A1EDC
:101740000895BC0184E090E00E946E1E0895AB01F4
:10175000BC018FE090E00E94621E0895AB01BC01C5
:1017600083E190E00E94621E089560E070E0CB018A
:101770000E94AE0B089560E070E0CB010E94A70BC1
:101780000E94B50B0895A8E0B0E0E9ECFBE00C94F2
:10179000E11D65EE7EEF80E090E00E946E1E60E04D
:1017A00082E090E00E94501E81E090E09093BD01A5
:1017B0008093BC0161E083E090E00E94501E60E0F5
:1017C00074E184E090E00E946E1E60E086E090E0AC
:1017D0000E94501E60E087E090E00E94501E40E0B2
:1017E00050E0BA0188E090E00E94621E60E083E26F
:1017F00090E00E94501E60E08CE090E00E94501E3D
:1018000060E08DE090E00E94501E19821A821B82D7
:101810001C821D821E821F82188648E050E067E10C
:1018200070E0CE0101960E94401E40E050E0BA01F7
:101830008FE190E00E94621E0E94BB0B2896E2E0BE
:101840000C94FD1D0E94C30B0895682F8EE090E05C
:101850000E94501E0895A6E0B0E0E1E3FCE00C9485
:10186000DF1D0E94BC168C0180911402909115021C
:101870008017910779F019821A820E94BC16BC0168
:1018800049815A8180E090E00E94DE0210931502A7
:10189000009314022696E4E00C94FB1D0E94C816E7
:1018A000609324027093250280932602909327026E
:1018B000609320027093210280932202909323026E
:1018C0000895089508950E94610C089508950E9456
:1018D000660C089581E49FE00E94AB100E94620CA8
:1018E0000E94630C089581E008950E94730C08958E
:1018F0000E94730C0895089508950E947B0C0E9425
:101900007C0C08950E94870B811102C00E94220C5A
:101910000E94920B809328020E949C0B909350028D
:1019200080934F020E94CE100E94970B90E00E947D
:1019300069068091BA019091BB010E948A060895C0
:101940000E94B3160E94FE0F0E94820C0E94B802F1
:101950000E94670C0895A6E0B0E0E1EBFCE00C9477
:10196000D51D0E94750C81110AC00E942B0C0E948B
:1019700069130E94C5022696EEE00C94F11D0E94A8
:10198000141026E1822E22E0922E640110E0F6016E
:10199000E190F1906F01812F0E944B0F1F5F153076
:1019A00009F44DC0E816F90691F38091280281FDF3
:1019B0000E94540F0E94780C782EF12C66246394B8
:1019C0008F2D0E944B0F8C01F401A190B1904F011B
:1019D0008A159B0569F1A826B926E12CCC24C3946D
:1019E000D12CC5018C219D21892BC1F07720B1F02C
:1019F000E982FA820E94BC169C838B836D8221E06F
:101A0000C8018C219D21892B09F420E049815A814C
:101A10006B817C818D81922F0E94DE02E394CC0C3D
:101A2000DD1CFCE0EF12DDCFF4013297118300835F
:101A3000F39485E0F812C4CF0E944E0C98CFE816BC
:101A4000F90609F0B2CF91CF1F93CF93DF930E9495
:101A50004E0EEC01811522E5920708F053C0811566
:101A600040E5940708F0DDC0803E9105F8F48D3C18
:101A7000910508F0AEC0883A910580F4853A910549
:101A800008F099C08130910521F00497813A9105C1
:101A900050F4CE01DF91CF911F910895885A91099A
:101AA0004B9708F48BC0C0E0D0E0F3CF811550E431
:101AB0009507F8F4C11580E2D80708F0CBC0C83EFE
:101AC000D10538F3CE019A9581159F4160F78D2F8E
:101AD0000E94F20E182FCE0199270E944E0E212F40
:101AE00030E0322F2227E901CC27DF71C82BD92B18
:101AF000D0CF99270E944E0ECC27DF70C82BD92B50
:101B0000D06AC7CF803842E59407C8F5803652E5E1
:101B1000950708F067C0C03482E5D807B0F08C2F75
:101B200086958695877020E2829FC0011124C3703C
:101B300021E030E0A90102C0440F551FCA95E2F729
:101B4000EA01C82BD92BDC68A4CFC03252E5D507F7
:101B500008F041C08C2F8695869520E2829FC001B7
:101B60001124C37021E030E0A90102C0440F551FC9
:101B7000CA95E2F7EA01C82BD92BDD688ACF803CF1
:101B800052E5950760F48F71C03AD24508F03FC026
:101B900090E0982F8827EC01C46FD06A7ACF805CE0
:101BA0009245809708F07FCFDC2FCC27CC27DF71C0
:101BB000C06FD06A6ECFA497D0646BCFC85AD0E004
:101BC000CC0FDD1FC55BDE4F0990D881C02DD464DA
:101BD00060CFD0655ECFCF71D0E0DC2FCC27C16F56
:101BE000D06A57CF86958695877020E2829FC00184
:101BF0001124C37021E030E0A90102C0440F551F39
:101C0000CA95E2F7EA01C82BD92BDA6842CF0E94C5
:101C1000F20EC82FD0E0DC2FCC27CC27DF71D062AA
:101C200038CF8F710E94F20E65E0D695C7956A9500
:101C3000E1F7CF70D0E0DC2FCC27282F30E084FFF5
:101C400005C054E0220F331F5A95E1F7C22BD32B66
:101C5000D0691FCF8D2F8F710E94F20E182FCE01E9
:101C600099270E944E0E212F30E0322F2227222763
:101C70003F71282B392BE901D2CF462F672F7530C2
:101C800028F44C3018F40E94BB01089580E090E0E5
:101C900008950E943D0E0E94240D0895803E9105F6
:101CA000D1F1C8F48133910509F47FC048F4893239
:101CB000910509F46FC08A32910509F47DC0089539
:101CC00089339105E1F082389105C9F0853391059A
:101CD00009F45BC00895843E9105D1F148F4823E39
:101CE000910531F1833E910541F181EE90E0089537
:101CF000863E9105C1F1873E9105E1F1089520915D
:101D00004F022370211165C02091500223FF14C09F
:101D100089E290E0089520914F0220FD43C0309168
:101D2000500230FF09C024FF4EC080E090E00895CB
:101D300020914F0222FDF7CF089520914F0222FDFE
:101D400045C03091500230FD44C024FFF5CFEDCFA7
:101D50002091500221FFF0CF80914F0284FDE5CF0A
:101D600087EE90E0089520914F0223FFE5CF24FDF8
:101D7000DCCFF6CF20914F0223FD2EC030915002D0
:101D800031FFE3CF84EE90E0089520914F0225FFCC
:101D9000D3CFBECF20914F0225FD21C0209150020C
:101DA00023FFCACF89E390E0089520914F0226FFD8
:101DB000C3CF8AE290E0089520914F0226FFBCCF66
:101DC00081E390E0089583EE90E0089582EE90E044
:101DD000089580EE90E0089586EE90E0089585E302
:101DE00090E0AACF90914F0292FF10C041E0282FBF
:101DF0002471243009F040E031E0282F2871283088
:101E000009F030E0431711F02CE0822793FF10C057
:101E100041E0282F2471243109F040E031E0282FDF
:101E20002871283109F030E0431711F02CE08227A7
:101E30003091500230FF10C051E0282F2171213025
:101E400009F050E041E0282F2871283009F040E0E7
:101E5000541711F029E0822731FF10C041E0282FEC
:101E60002171213109F040E031E0282F287128311B
:101E700009F030E0431711F029E0822794FD877EB6
:101E8000089580E0089508950E94430F08950895ED
:101E90000E94470F0895E82FF0E0EE0FFF1FE55A6C
:101EA000FD4F808191810895089580EA8A95F1F728
:101EB000089500C008950E94550F0895F894E82FE2
:101EC000E295EF70F0E041A18F7021E030E0B901C0
:101ED00002C0660F771F8A95E2F7CB01962F909587
:101EE000942391A392A1892B82A3789408950F93B0
:101EF0001F93CF93DF93CDE8D1E089918F3F11F00D
:101F00000E945E0F81E0C239D807B9F7C1E8D1E07D
:101F10000DE811E089918F3F11F00E945E0F0C17C0
:101F20001D07C1F7DF91CF911F910F910895A0E098
:101F3000B0E0EDE9FFE00C94DA1DEC01B62E062FBF
:101F400010E0C80183579E4F7C01FC0180818F3FC8
:101F500009F44FC0F894E82FE295EF70F0E091A1FA
:101F60008F7021E030E001C0220F8A95EAF7892FB7
:101F7000822B81A382A12095282322A378940E94FA
:101F8000590FE1E8F1E041E050E0C12CD12C219162
:101F90002F3F89F0A22FA295AF70A05EB0E08C9188
:101FA00090E02F7002C0959587952A95E2F7817091
:101FB0009A01882311F020E030E0C22AD32A440F8E
:101FC000551F81E0ED38F80711F7F70180818F3F49
:101FD00011F00E945E0F61E0C114D10409F460E0C9
:101FE0008B2D0E945B0F000F111FC00FD11FD982D4
:101FF000C882CDB7DEB7E9E00C94F61D0E94770FDA
:102000008AE0EBE5F2E0DF01982F1D929A95E9F75F
:10201000E1E5F2E0DF011D928A95E9F785E00E9493
:1020200051100E94440F0895AAE0B0E0EAE1F0E107
:102030000C94DE1DFE0131968AE0DF011D928A9527
:10204000E9F710E0FE2E0F2F612F8F2D902F0E94A9
:10205000970F1F5F1530C1F74AE050E06F2D702FCA
:1020600081E592E00E941C1E21E0892B81F420E092
:1020700045E06BE572E081E592E00E945210182F76
:102080000E94480F812F2A96E5E00C94FA1D8AE001
:10209000EF2DF02FA1E5B2E001900D928A95E1F7C6
:1020A000E7CF0895A0E0B0E0E8E5F0E10C94DB1D97
:1020B000D82EE92EF62ED72F042FC22F222379F007
:1020C00081E080932B020E94BC1690932A02809399
:1020D000290280E0CDB7DEB7E8E00C94F71DC09090
:1020E0002B02CC20B1F38091290290912A020E9408
:1020F000E516059770F310E0000F111FA8016D2D74
:102100007E2D8F2D9D2F0E941C1E892B41F0A80132
:102110006D2D7E2D8F2D9D2F0E94291ECC2D10926E
:102120002B028C2FD7CF0E94AB0C08950E9455161E
:102130000E9477180E946A0C0E9491180E94A00CBD
:102140000E949E180E94A3180E9493100E94BD181E
:102150000E947D0CF7CF9093930180939201089594
:102160000E94800B089580E00E944B0F81700895BB
:102170000E9414102FEF86E791E02150804090409C
:10218000E1F700C000000E9414100E94B3108823E1
:1021900021F00E94B0100E94181708950E94B810F4
:1021A0000895CF93DF93EB0186319C4719F50E9488
:1021B000890A9D819923A1F08A7A91E0811101C059
:1021C00090E090932C02882349F085E30E94D21579
:1021D0000E941C0B80E0DF91CF91089589E2F6CF39
:1021E00080912C02882321F085E30E94DA15F0CF3C
:1021F00089E2FBCF81E0EFCFCF93DF93EC01FB01CE
:102200008581882309F4D2C09E01305723323105DD
:1022100008F0B2C00E949C0B9093500280934F0232
:10222000FE01E150F047E232F10520F4EE56F14EA6
:102230000C94CB1D80914F02816080934F0293C01C
:10224000809150028860809350028DC080914F022F
:102250008260F3CF80914F028460EFCF80914F0274
:102260008860EBCF809150028160EDCF8091500269
:102270008260E9CF80914F028061DFCF80914F0271
:102280008062DBCF80914F028064D7CF0E941A0614
:1022900080914F028068D1CF80914F028C60CDCF6A
:1022A000809150028360CFCF80914F028E7FC5CF47
:1022B00080915002877FC7CF80914F028D7FBDCF25
:1022C00080914F028B7FB9CF80914F02877FB5CF2E
:1022D000809150028E7FB7CF809150028D7FB3CF17
:1022E00080914F028F7EA9CF80914F028F7DA5CF25
:1022F00080914F028F7BA1CF0E941A0680914F02DE
:102300008F779BCF80914F02837F97CF8091500230
:102310008C7F99CF80914F0282FB992790F921E021
:10232000922790FB82F990FB83F987CF809150022E
:10233000982F909591708E7F892B90FB81F983CF98
:1023400090914F02892F8F7B96FF806476CF0E94F9
:102350001A0690914F02892F97FB87F980586DCF0D
:1023600081E00E94250C80914F02909150020E94C2
:10237000A10B0E941A0680E0DF91CF91089580E0C2
:10238000F0CF90914F02892F8F7E94FF806155CFBF
:1023900090914F02892F8E7F90FF81604ECF909158
:1023A0005002892F877F93FF88604DCF81E0E4CF73
:1023B000282F35EB2303C001112497FF04C0805858
:1023C0009109892F089580589F4FFBCF8091330248
:1023D00080FF0DC06091070170E0660F771F6038C5
:1023E0007105C0F561157105B9F1862F089581FF5A
:1023F00007C06091070184E0689FB0011124EFCF0E
:1024000082FF04C06091070188E0F6CF809132021C
:102410008823E9F0909106016091070170E0891727
:1024200030F093E0660F771F9A95E1F7D8CF869F3B
:102430009001879F300D112483E0220F331F8A956E
:10244000E1F7692F70E0C9010E94B71DC8CF68E0AD
:1024500070E0CBCF8FE7089581E00895809133023B
:1024600080FF0CC06091030170E0759567957595CC
:1024700067956115710561F1862F089581FF06C08A
:102480006091030170E075956795F3CF609103014A
:1024900070E082FD15C0209131022223B1F09091AD
:1024A00002016091030170E0291750F4269FA001FA
:1024B000279F500D1124692F70E0CA010E94B71D9B
:1024C00060387105B0F28FE7089561E070E0D4CF15
:1024D00081E00895E3E3E80FE331E0F5F0E0EC5448
:1024E000F14E0C94CB1D0E94E6118195809337022A
:1024F00008950E94E611FACF0E94E611819580931B
:10250000360208950E94E611FACF0E942E1280939F
:10251000380208950E942E128195F9CF0E942E1242
:1025200081958093390208950E942E12FACF815D21
:10253000990B21E030E001C0220F8A95EAF78091E3
:102540003502822B80933502089580913302816099
:10255000809333020895809133028260F9CF809195
:1025600033028460F5CF409136028D3C59F480915E
:10257000370287FF0DC010923702442359F410929E
:10258000320208C08E3C81F48091370218169CF309
:10259000442381F08091380290913902892B811176
:1025A00059C01092310208958F3C41F447FFF0CF9B
:1025B00010923602809137028823E0CF803D19F4D3
:1025C0001416B4F3E5CF90913802893D29F4191619
:1025D000FCF610923802DCCF8A3D19F497FFD8CF71
:1025E000F8CF909139028B3D29F497FFD1CF10920B
:1025F0003902CECF8C3D19F41916CCF3C9CF9FE226
:10260000980F983090F4815D990B21E030E0B9018A
:1026100002C0660F771F8A95E2F7CB0180959091F3
:102620003502892380933502B3CF8D3D31F48091FB
:1026300033028E7F80933302ABCF8E3D21F48091A5
:1026400033028D7FF7CF8F3D09F0A2CF8091330207
:102650008B7FF0CF08950E94BC16209136023091F6
:102660003702232B222321F080932F0290933002F4
:102670002091380230913902232B222321F08093BC
:102680002D0290932E0284E392E00E942615089575
:1026900086E0E4E3F2E0DF011D928A95E9F710920B
:1026A000320210923102109233020895FC018281AD
:1026B00081110DC0838181110AC08481811107C0FD
:1026C00081E09581911101C080E08170089581E0E1
:1026D000FCCFA6E0B0E0EFE6F3E10C94DE1D86E06F
:1026E000E4E3F2E09E012F5F3F4FD90101900D928C
:1026F0008A95E1F710923602109237021092380252
:10270000109239028B819C81892B8901882391F059
:1027100080912F02909130020E94E5169C018091D9
:1027200032028823C9F14091080150E04217530753
:1027300008F43FC08D819E81892B882399F0809178
:102740002D0290912E020E94E5169C01809131028B
:10275000882309F467C04091040150E042175307F1
:1027600008F46EC0B80184E392E00E94ED15811177
:1027700005C084E392E00E94561381110E942B133E
:1027800086E0F801A4E3B2E001900D928A95E1F7AA
:102790002696E5E00C94FA1D409109019AE0499FC4
:1027A000A00111244217530728F68F5F809332024D
:1027B00002C08F3FD1F7FB80FF2059F00E94E61145
:1027C00091E01F140CF09FEF899F802D11248093BE
:1027D0003602FC80FF2059F00E94E61191E01F14A0
:1027E0000CF09FEF899F802D1124809337028091F8
:1027F0003602882309F49ECFF0903702FF2009F4B7
:1028000099CF0E94D811811101C081E080933602D6
:102810008F2D0E94D811882319F0809337028ACF18
:1028200081E0FBCF409105019AE0499FA00111246E
:102830004217530708F096CF8F5F8093310202C092
:102840008F3FD1F7FD80FF2059F00E942E1291E0BA
:102850001F140CF09FEF899F802D11248093380264
:10286000FE80FF2059F00E942E1291E01F140CF000
:102870009FEF899F802D1124809339028091380227
:10288000882309F46FCFF0903902FF2009F46ACF52
:102890000E94D811811101C081E0809338028F2DF0
:1028A0000E94D811882319F0809339025BCF81E010
:1028B000FBCF0F931F93CF93DF93C42FD22FFC0135
:1028C00085818823C9F040933C020E94BC169093F6
:1028D0003B0280933A0280E28C0F883040F4C7704C
:1028E00081E001C0880FCA95EAF70E94BD03DF911D
:1028F000CF911F910F91089510913C0214133CC089
:1029000080913A0290913B020E94E516883C910525
:1029100098F5C0E2CD0F1D1741F180E2810F88309C
:1029200040F4177081E001C0880F1A95EAF70E9401
:10293000C403C83020F0802F0E94B403D8CF91E0A8
:102940008D2F877001C0990F8A95EAF7892F0E9411
:10295000BD03802F0E94B403D77081E001C0880FAF
:10296000DA95EAF70E94C403C2CF802F0E94B40315
:10297000C83008F0BCCFF0CF80E28C0F883008F070
:10298000B6CFC77081E001C0880FCA95EAF7EACFD9
:102990000F93FC01CB01E851FC47E730F10590F5BE
:1029A000E953F14E0C94CB1D06E221EE41EE6AE1B3
:1029B0007CE70E94591480E00F91089507E225EE0C
:1029C00045EE6BE17CE7F5CF06E221EE40EE68E1F3
:1029D0007CE7EFCF07E225EE44EE69E17CE7E9CF43
:1029E00006E221EE42EE6CE17CE7E3CF07E225EE62
:1029F00046EE6DE17CE7DDCF08E221E045EE6EE1D9
:102A00007CE7D7CFFB018581811110923C0281E0E8
:102A1000D3CF90934202809341020895E091410206
:102A2000F0914202309729F00190F081E02D099554
:102A3000089580E00895E0914102F09142023097BC
:102A400021F00280F381E02D09950895DC01E091E9
:102A50004102F0914202309739F082E08C93068077
:102A6000F781E02DCD0109950895A3E0B0E0EBE3F7
:102A7000F5E10C94E11D9C0180913F029091400290
:102A800082179307A1F03093400220933F02E09118
:102A90004102F0914202309751F083E089833B83F9
:102AA0002A830084F185E02DCE01019609952396B5
:102AB000E2E00C94FD1DA3E0B0E0E1E6F5E10C944A
:102AC000E11D9C0180913D0290913E028217930787
:102AD000A1F030933E0220933D02E0914102F0913B
:102AE0004202309751F084E089833B832A8300843B
:102AF000F185E02DCE01019609952396E2E00C9434
:102B0000FD1D40910001509101019A012E5F3F4F40
:102B1000485F5F4F80E0F90190812F5F3F4F911137
:102B20008F5F42175307B9F70895882371F02091FA
:102B3000000130910101F9013296285F3F4F9191D8
:102B4000981729F0E217F307D1F780E0089581E0A4
:102B500008959C01FC0132968FEF90E04191461759
:102B600051F08F3F19F4411101C0892F9F5F9630BA
:102B7000A9F78F3F09F40895280F311D87FD3A9575
:102B8000F901628308959C01FC013296285F3F4F52
:102B90008191861303C0DF0111971C92E217F3079E
:102BA000B9F70895682F80910001909101010E946A
:102BB000A9150895682F80910001909101010E944C
:102BC000C3150895E0910001F0910101329686E06D
:102BD000DF011D928A95E9F70895DC01FB0111964A
:102BE0009C9111978181981322C012968C91129713
:102BF000882319F0928189131AC013968C91139728
:102C0000882319F09381891312C015968C9115971A
:102C1000882319F0958189130AC014969C919923F1
:102C200021F081E02481291303C080E001C081E00C
:102C30008170089508950E941A1608958F5F8093F9
:102C400043020E941B16089583E0809343020E9472
:102C50001B1608950E941E16089581E0809343027A
:102C60000E941B1608950E942D1608950895089538
:102C70000E9437160895089508950E943616089503
:102C8000CF930E943B160E9414100E943C16C0E095
:102C90008C2F0E944B0F892B31F4CF5FC530C1F7C9
:102CA00080E0CF91089581E0FCCF85B7806885BF33
:102CB00085B7806885BF08951F921FB61F921124A3
:102CC0008F939F93AF93BF9380914402811113C060
:102CD0008091650290916602A0916702B0916802AE
:102CE0004196A11DB11D8093650290936602A09349
:102CF0006702B0936802BF91AF919F918F911F902F
:102D00001FBE1F90189580916D02843031F10E9492
:102D10009C021092440288E190E020E40FB6F894FF
:102D2000A895809360000FBE2093600083B7817FD9
:102D3000846083BF83B7816083BF7894889583B7AD
:102D40008E7F83BF0FB6F894A8958091600088614C
:102D500080936000109260000FBE08950E941A06D2
:102D60000E94A102089582E084BD93E095BD9AEF90
:102D700097BD80936E0008952FB7F89480916502F7
:102D800090916602A0916702B09168022FBF0895EA
:102D9000A4E0B0E0EEECF6E10C94E11D8FB7F894FE
:102DA000209165023091660240916702509168025D
:102DB00029833A834B835C838FBF69817A818B81BE
:102DC0009C812496E2E00C94FD1D9C014FB7F89481
:102DD0008091650290916602A0916702B0916802AD
:102DE0004FBF821B930B089578941F921FB61F92BA
:102DF00011248F939F93AF93BF938091650290911D
:102E00006602A0916702B09168020196A11DB11DF2
:102E10008093650290936602A0936702B093680264
:102E2000BF91AF919F918F911F901FBE1F901895DA
:102E300087E797E7909301088093000888E19AE07C
:102E40000FB6F894A895809360000FBE9093600031
:102E5000FFCF88E19AE00FB6F894A89580936000C0
:102E60000FBE90936000FFCF80914D0208950895AA
:102E7000282FCB01BA0130916D023430E1F42F706C
:102E80002093E9002FEF3091E80035FD07C035EDC4
:102E90003A95F1F7000021502111F5CF2091E8007B
:102EA00025FF09C040E050E00E9435198091E800FC
:102EB0008E778093E8000895BC0143E050E082E003
:102EC0000E9438170895BC0146E050E082E00E945D
:102ED00038170895CF93DF93D82FC92F48E050E0DB
:102EE000682F792F81E00E94381788E0ED2FFC2FA2
:102EF000A5E4B2E001900D928A95E1F7DF91CF91C0
:102F0000089580916C02811109C00E94BD1A0E942F
:102F10001A1B8091E20084608093E2000895109271
:102F20006C0208950E942D1608956091690281E057
:102F3000611101C080E00E942416089590916D02F5
:102F400081E0943009F080E0609169020E942A16C5
:102F5000089542E061EC81E00E94391A42E261EC9E
:102F600082E00E94391A90916D0281E0943009F05C
:102F700080E0609169020E941E16089580916F02A0
:102F8000893089F148F4823009F4A0C0833009F413
:102F90005AC0813041F008958A3009F487C08B30DF
:102FA00009F46CC0089580916E02813A09F04AC01C
:102FB0008091E800877F8093E80080917202909171
:102FC0007302892B61F060E080E090E070E00E9485
:102FD00084198091E8008B778093E800089568E079
:102FE00085E492E0F3CF80916E02813259F58091B1
:102FF000720290917302029728F58091E800877F12
:103000008093E8008091E80082FF18C09091F3005F
:103010008091F200029731F48091F100813011F03B
:10302000863021F48091F10080934D028091E80078
:103030008B778093E8000E946D1A04C080916D0226
:103040008111E0CF089580916E02813AD9F7809185
:10305000720290917302892BA9F78091E800877F13
:103060008093E8008091E80080FFFCCF80911401FC
:103070008093F1008091E8008E77DBCF80916E0223
:10308000813201F78091720290917302892BD1F6FF
:103090008091E800877F8093E8000E946D1A8091FC
:1030A0007002809314010E941A06089580916E02A6
:1030B000813241F68091E800877F8093E8000E948A
:1030C0006D1A8091710280934E02089580916E0274
:1030D000813A09F0B7CF8091E800877F8093E800BC
:1030E0008091E80080FFFCCF80914E02C1CF84B771
:1030F000877F84BF0FB6F894A8958091600088619F
:1031000080936000109260000FBE80E890E00FB6E0
:10311000F89480936100909361000FBE0E94331673
:1031200008950E94BD1A0E941A1BE2EEF0E0808111
:103130008460808378940E949D1D08958AE091E0C8
:103140000E940915089580916D02853031F48091B7
:103150006D02853019F00E94AE1608950E94831604
:103160000E944016882399F380916B02882379F39B
:103170000E941F190E941A06EACF08959A014091F1
:103180007402509175020E94C6180895AC01CB01DB
:10319000D901252F332723303105E1F058F42130B0
:1031A0003105C9F122303105D9F180E090E020E00D
:1031B00030E01EC02132310521F122323105A9F75C
:1031C000892BC1F16130710581F78BE790E021E433
:1031D00032E00EC0CA019927413069F08230910572
:1031E00069F0E0EFF1E0892B01F7849190E09F0115
:1031F0002D933C930895E4ECF1E0F7CFECE9F1E096
:10320000F4CF892B91F06130710579F689E090E077
:103210002FE132E0EDCF82E190E02FE232E0E8CF23
:103220008BE390E024EF31E0E3CF89E090E026E00B
:1032300032E0DECF84E490E02CEB32E0D9CF80E1C5
:1032400089BD82E189BD09B400FEFDCF8091D8001F
:103250008F7D8093D8008091E00082608093E000B1
:103260008091E00081FDFCCF0895AF92BF92CF9294
:10327000DF92FF920F931F93CF93DF936C01EB01CB
:103280008A010E948C1AF82E811123C001151105A4
:1032900039F0F80180819181C81BD90BC80ED91E65
:1032A000A12CB12C2097A9F08091E80085FD22C0C7
:1032B0008091E8008E778093E80001151105A1F058
:1032C000F801808191818A0D9B1D9183808385E027
:1032D000F82E8F2DDF91CF911F910F91FF90DF90EE
:1032E000CF90BF90AF9008950E948C1A8823E1F28E
:1032F000F82EEFCFF60181916F018093F1002197B5
:10330000FFEFAF1ABF0ACECFFC019B018091740280
:10331000909175028617970718F0672B61F0C90125
:1033200040E0009771F441110CC08091E80082FFE9
:1033300035C080E008958091E8008E778093E800A2
:10334000EECF20916D022223A9F12530A9F1209121
:10335000E80023FD2DC02091E80022FDE6CF20915A
:10336000E80020FFDECF3091F3002091F2000097BB
:1033700019F02830310558F041E02830310509F0C6
:1033800040E02091E8002E772093E800CACF4191D9
:103390004093F10001972F5F3F4FE9CF80916D027D
:1033A000882341F0853041F08091E80083FFBDCF54
:1033B00081E0089582E0089583E00895FC019B0177
:1033C00080917402909175028617970718F0672B09
:1033D00061F0C90140E0009771F441110CC0809187
:1033E000E80082FF36C080E008958091E8008E7783
:1033F0008093E800EECF20916D022223B1F12530B9
:10340000B1F12091E80023FD2EC02091E80022FDBB
:10341000E6CF2091E80020FFDECF3091F30020912D
:10342000F200009719F02830310558F041E02830BB
:10343000310509F040E02091E8002E772093E80064
:10344000CACF44914093F100319601972F5F3F4FCF
:10345000E8CF80916D02882341F0853041F0809162
:10346000E80083FFBCCF81E0089582E0089583E007
:103470000895982F973028F08F708093E90081E0AD
:1034800008959093E900242F762F50E0981731F09B
:103490007091EC002091ED005091F00021FD02C0F0
:1034A0009F5FE8CF3091EB003E7F3093EB0030918F
:1034B000ED003D7F3093ED003091EB0031603093B3
:1034C000EB007093EC002093ED005093F0002091FE
:1034D000EE0027FDE5CF80E0089580916E0287FF22
:1034E00013C08091E80082FF06C08091E8008B77CE
:1034F0008093E80004C080916D028111F2CF08959D
:1035000080916D028823D9F38091E80080FFF8CF85
:103510008091E8008E77ECCF2091E4003091E500B7
:1035200095E6A9018091EC008170882331F08091AB
:10353000E80080FF06C080E008952091E80022FDA9
:103540001BC080916D02882391F0853091F08091AD
:10355000EB0085FD10C02091E4003091E50042179A
:10356000530701F391509111DCCF84E0089582E07C
:10357000089583E0089581E008950E942C1B0E9425
:10358000341BE0EEF0E0808181608083E8EDF0E0C4
:1035900080818F77808319BCA7EDB0E08C918E7FFE
:1035A0008C9380818F7E808310926C0208950F939C
:1035B0001F93CF93DF930E942C1B0E94341BC8EDF6
:1035C000D0E088818F77888388818068888388812C
:1035D0008F7D888319BC10926D021092690210923F
:1035E0006B0210926A0200EE10E0F80180818B7F7E
:1035F000808388818160888342E060E080E00E946F
:10360000391AE1EEF0E080818E7F8083E2EEF0E017
:10361000808181608083808188608083F8018081DF
:103620008E7F8083888180618883DF91CF911F9115
:103630000F910895E8EDF0E080818F7E8083E7EDC3
:10364000F0E080818160808384E082BF81E08093AC
:103650006C020E94D71A0895E8EDF0E080818E7F19
:1036600080831092E20008951092DA001092E10037
:1036700008951F920F920FB60F9211242F933F932C
:103680004F935F936F937F938F939F93AF93BF936A
:10369000EF93FF938091E10082FF0BC08091E200E5
:1036A00082FF07C08091E1008B7F8093E1000E9440
:1036B0009C1D8091DA0080FF19C08091D80080FFA6
:1036C00015C08091DA008E7F8093DA008091D90056
:1036D00080FF94C080E189BD82E189BD09B400FE0C
:1036E000FDCF81E080936D020E9481178091E100FF
:1036F00080FF19C08091E20080FF15C08091E20038
:103700008E7F8093E2008091E20080618093E200EE
:103710008091D80080628093D80019BC85E08093A6
:103720006D020E9495178091E10084FF29C080916D
:10373000E20084FF25C080E189BD82E189BD09B432
:1037400000FEFDCF8091D8008F7D8093D8008091BE
:10375000E1008F7E8093E1008091E2008F7E809374
:10376000E2008091E20081608093E2008091690232
:10377000882309F449C084E080936D020E949E175B
:103780008091E10083FF29C08091E20083FF25C082
:103790008091E100877F8093E10082E080936D0259
:1037A000109269028091E1008E7F8093E100809108
:1037B000E2008E7F8093E2008091E200806180933E
:1037C000E20042E060E080E00E94391A8091F0005F
:1037D00088608093F0000E949217FF91EF91BF9153
:1037E000AF919F918F917F916F915F914F913F9199
:1037F0002F910F900FBE0F901F90189519BC10922B
:103800006D020E948F1772CF8091E30087FF02C084
:1038100083E0B2CF81E0B0CF1F920F920FB60F922C
:103820001124FF920F931F932F933F934F935F9316
:103830006F937F938F939F93AF93BF93CF93DF93B8
:10384000EF93FF9309EE10E0F8018081C091EC0046
:10385000C795CC27C7958F70FC2EF82A1082C0EF31
:10386000D0E08881877F888378940E94551CF80176
:103870001082888188608883CF2DCF70C083FF91AC
:10388000EF91DF91CF91BF91AF919F918F917F91F8
:103890006F915F914F913F912F911F910F91FF90E9
:1038A0000F900FBE0F901F901895AAE2B0E0EBE5C5
:1038B000FCE10C94E01D8EE692E0FC010196209163
:1038C000F100208322E086379207B9F70E94BE17E5
:1038D0008091E80083FF38C080916E0290916F0262
:1038E0009A3090F5E92FF0E0E253F14E0C94CB1DA5
:1038F000803889F0823841F5809172028F7087306C
:1039000018F58093E9008091EB0085FB882780F90A
:103910001092E90006C080916A0290916B029111A9
:1039200082609091E800977F9093E8008093F10087
:103930001092F1008091E8008E7723C0811116C0AB
:1039400080917002813011F18091E80083FF0AC0FC
:103950008091E800877F8093E8008091EB0080628F
:103960008093EB00AA96E3E00C94FC1D823061F793
:1039700080917002882389F01092E9008091E8001C
:10398000877F8093E8000E946D1ADECF81E093303C
:1039900009F080E080936B02EFCF809172028F700C
:1039A0002FEF280F263080F68093E9002091EB005E
:1039B00020FFE2CF933031F48091EB00806280935E
:1039C000EB00DACF9091EB0090619093EB0021E057
:1039D00030E0A90102C0440F551F8A95E2F74093D9
:1039E000EA001092EA008091EB008860E8CF811134
:1039F000ABCF109170021F778091E3008078812B0C
:103A00008093E3008091E800877F8093E8000E9424
:103A10006D1A8091E80080FFFCCF8091E300806800
:103A20008093E30083E0111101C082E080936D0276
:103A30008BCF8058823008F087CF809170029091B0
:103A400071028C3D53E0950799F583E08A838AE201
:103A500089834FB7F894DE01139620E03EE051E2EF
:103A6000E32FF0E050935700849120FF03C082952C
:103A70008F703F5F8F708A30C8F0895C90E08D93C3
:103A80009D932F5F243161F74FBF8091E800877FBE
:103A90008093E8006AE270E0CE0101960E948419EA
:103AA0008091E8008B778093E8004ECF805DE6CF71
:103AB0006091720270917302AE014F5F5F4F0E947E
:103AC000BE18BC01892B09F43FCF8091E800877FA5
:103AD0008093E80089819A810E94DE19E1CF8038C5
:103AE00009F032CF8091E800877F8093E8008091D1
:103AF00069028093F1001ECF811126CF9091700250
:103B0000923008F021CF8091E800877F8093E80011
:103B1000909369020E946D1A80916902882331F0A6
:103B200084E080936D020E94A9170ECF8091E3007C
:103B300087FDF6CF81E0F5CF0895CF9380916D0298
:103B4000882399F08091E900C091EC00C795CC27BB
:103B5000C7958F70C82B1092E9008091E80083FD13
:103B60000E94551CCF70C093E900CF91089597FB38
:103B7000072E16F4009407D077FD09D00E94081E86
:103B800007FC05D03EF4909581959F4F0895709560
:103B900061957F4F0895EE0FFF1F0590F491E02D82
:103BA00009942F923F924F925F926F927F928F92E1
:103BB0009F92AF92BF92CF92DF92EF92FF920F93BC
:103BC0001F93CF93DF93CDB7DEB7CA1BDB0B0FB6C6
:103BD000F894DEBF0FBECDBF09942A883988488883
:103BE0005F846E847D848C849B84AA84B984C88419
:103BF000DF80EE80FD800C811B81AA81B981CE0F10
:103C0000D11D0FB6F894DEBF0FBECDBFED010895F4
:103C1000AA1BBB1B51E107C0AA1FBB1FA617B707F2
:103C200010F0A61BB70B881F991F5A95A9F780950E
:103C30009095BC01CD010895FB01DC0104C08D917C
:103C40000190801921F441505040C8F7881B990B0E
:103C50000895FB01DC0102C001900D9241505040DB
:103C6000D8F70895F999FECF92BD81BDF89A9927AA
:103C700080B50895A8E1B0E042E050E00C94761ED3
:103C8000DC01A40FB51F4150504048F0CB01840F18
:103C9000951F2E910E94511E41505040D0F708951B
:103CA000262FF999FECF92BD81BDF89A019700B4F5
:103CB000021639F01FBA20BD0FB6F894FA9AF99A95
:103CC0000FBE08950396272F0E94511E0E94501E7A
:103CD000252F0E94511E242F0C94511E0196272F30
:103CE0000E94511E0C94501EDC01CB01FC01F9997D
:103CF000FECF06C0F2BDE1BDF89A319600B40D9238
:103D000041505040B8F70895F894FFCF09040904D2
:103D100050045004B504D20438043804D7044E05C6
:103D20005F055F055411C8115C1126112A1160113D
:103D30002E11641170113A11C1113E11741142110A
:103D40007811A01146117C11A7114C1182118A1112
:103D50003211681136116C11501186119611B01183
:103D6000BF1120115811CF11731279127C128212D7
:103D700097129712971297129712971297129712FB
:103D800085128A128E129412A512AB12AF12E4148D
:103D9000EA14D414DE14F014F614FC14781C9E1CDF
:103DA000A41C9E1CA41CF71C191DA41C6F1D7C1DAB
:103DB0000A02280850011E0A140134176A1737171F
:103DC00063175C1701E200E900EA00B500B600B72E
:103DD00000CD008301CC008A0192019401210223CD
:103DE0000224022502260227022A02B300B4006F31
:103DF0000070009F01CB019F02A002E200E900EAEF
:103E000000B500B600B700CD008301CC008A019256
:103E10000194012102230224022502260227022AFC
:103E200002B300B4006F0070009F01CB019F02A09D
:103E30000234C697669490919293F4F5F636323335
:023E400031F758
:00000001FF
